{
	"data": {
		"bytecode": {
			"linkReferences": {},
			"object": "6080604052607f6000806101000a81548160ff021916908360000b60ff16021790555060ff600060016101000a81548160ff021916908360ff16021790555034801561004a57600080fd5b506106108061005a6000396000f3fe608060405234801561001057600080fd5b50600436106100625760003560e01c8063165c4a16146100675780631a4bb2c5146100975780633ef5e445146100c7578063771602f7146100f7578063ab78e68b14610127578063f88e9fbf14610157575b600080fd5b610081600480360381019061007c9190610228565b610187565b60405161008e9190610277565b60405180910390f35b6100b160048036038101906100ac9190610228565b61019d565b6040516100be9190610277565b60405180910390f35b6100e160048036038101906100dc9190610228565b6101b3565b6040516100ee9190610277565b60405180910390f35b610111600480360381019061010c9190610228565b6101c9565b60405161011e9190610277565b60405180910390f35b610141600480360381019061013c9190610228565b6101df565b60405161014e9190610277565b60405180910390f35b610171600480360381019061016c9190610228565b6101f5565b60405161017e9190610277565b60405180910390f35b60008183610195919061048a565b905092915050565b600081836101ab9190610522565b905092915050565b600081836101c191906104e4565b905092915050565b600081836101d79190610292565b905092915050565b600081836101ed919061036c565b905092915050565b600080821461020d57818361020a91906102e8565b90505b92915050565b600081359050610222816105c3565b92915050565b6000806040838503121561023f5761023e6105b1565b5b600061024d85828601610213565b925050602061025e85828601610213565b9150509250929050565b61027181610518565b82525050565b600060208201905061028c6000830184610268565b92915050565b600061029d82610518565b91506102a883610518565b9250827fffffffffffffffffffffffffffffffffffffffffffffffffffffffffffffffff038211156102dd576102dc610553565b5b828201905092915050565b60006102f382610518565b91506102fe83610518565b92508261030e5761030d610582565b5b828204905092915050565b6000808291508390505b60018511156103635780860481111561033f5761033e610553565b5b600185161561034e5780820291505b808102905061035c856105b6565b9450610323565b94509492505050565b600061037782610518565b915061038283610518565b92506103af7fffffffffffffffffffffffffffffffffffffffffffffffffffffffffffffffff84846103b7565b905092915050565b6000826103c75760019050610483565b816103d55760009050610483565b81600181146103eb57600281146103f557610424565b6001915050610483565b60ff84111561040757610406610553565b5b8360020a91508482111561041e5761041d610553565b5b50610483565b5060208310610133831016604e8410600b84101617156104595782820a90508381111561045457610453610553565b5b610483565b6104668484846001610319565b9250905081840481111561047d5761047c610553565b5b81810290505b9392505050565b600061049582610518565b91506104a083610518565b9250817fffffffffffffffffffffffffffffffffffffffffffffffffffffffffffffffff04831182151516156104d9576104d8610553565b5b828202905092915050565b60006104ef82610518565b91506104fa83610518565b92508282101561050d5761050c610553565b5b828203905092915050565b6000819050919050565b600061052d82610518565b915061053883610518565b92508261054857610547610582565b5b828206905092915050565b7f4e487b7100000000000000000000000000000000000000000000000000000000600052601160045260246000fd5b7f4e487b7100000000000000000000000000000000000000000000000000000000600052601260045260246000fd5b600080fd5b60008160011c9050919050565b6105cc81610518565b81146105d757600080fd5b5056fea26469706673582212205240b0e632249827048dd989a8748d3f629e9546451d36940daa6baca5fb0e9c64736f6c63430008070033",
			"opcodes": "PUSH1 0x80 PUSH1 0x40 MSTORE PUSH1 0x7F PUSH1 0x0 DUP1 PUSH2 0x100 EXP DUP2 SLOAD DUP2 PUSH1 0xFF MUL NOT AND SWAP1 DUP4 PUSH1 0x0 SIGNEXTEND PUSH1 0xFF AND MUL OR SWAP1 SSTORE POP PUSH1 0xFF PUSH1 0x0 PUSH1 0x1 PUSH2 0x100 EXP DUP2 SLOAD DUP2 PUSH1 0xFF MUL NOT AND SWAP1 DUP4 PUSH1 0xFF AND MUL OR SWAP1 SSTORE POP CALLVALUE DUP1 ISZERO PUSH2 0x4A JUMPI PUSH1 0x0 DUP1 REVERT JUMPDEST POP PUSH2 0x610 DUP1 PUSH2 0x5A PUSH1 0x0 CODECOPY PUSH1 0x0 RETURN INVALID PUSH1 0x80 PUSH1 0x40 MSTORE CALLVALUE DUP1 ISZERO PUSH2 0x10 JUMPI PUSH1 0x0 DUP1 REVERT JUMPDEST POP PUSH1 0x4 CALLDATASIZE LT PUSH2 0x62 JUMPI PUSH1 0x0 CALLDATALOAD PUSH1 0xE0 SHR DUP1 PUSH4 0x165C4A16 EQ PUSH2 0x67 JUMPI DUP1 PUSH4 0x1A4BB2C5 EQ PUSH2 0x97 JUMPI DUP1 PUSH4 0x3EF5E445 EQ PUSH2 0xC7 JUMPI DUP1 PUSH4 0x771602F7 EQ PUSH2 0xF7 JUMPI DUP1 PUSH4 0xAB78E68B EQ PUSH2 0x127 JUMPI DUP1 PUSH4 0xF88E9FBF EQ PUSH2 0x157 JUMPI JUMPDEST PUSH1 0x0 DUP1 REVERT JUMPDEST PUSH2 0x81 PUSH1 0x4 DUP1 CALLDATASIZE SUB DUP2 ADD SWAP1 PUSH2 0x7C SWAP2 SWAP1 PUSH2 0x228 JUMP JUMPDEST PUSH2 0x187 JUMP JUMPDEST PUSH1 0x40 MLOAD PUSH2 0x8E SWAP2 SWAP1 PUSH2 0x277 JUMP JUMPDEST PUSH1 0x40 MLOAD DUP1 SWAP2 SUB SWAP1 RETURN JUMPDEST PUSH2 0xB1 PUSH1 0x4 DUP1 CALLDATASIZE SUB DUP2 ADD SWAP1 PUSH2 0xAC SWAP2 SWAP1 PUSH2 0x228 JUMP JUMPDEST PUSH2 0x19D JUMP JUMPDEST PUSH1 0x40 MLOAD PUSH2 0xBE SWAP2 SWAP1 PUSH2 0x277 JUMP JUMPDEST PUSH1 0x40 MLOAD DUP1 SWAP2 SUB SWAP1 RETURN JUMPDEST PUSH2 0xE1 PUSH1 0x4 DUP1 CALLDATASIZE SUB DUP2 ADD SWAP1 PUSH2 0xDC SWAP2 SWAP1 PUSH2 0x228 JUMP JUMPDEST PUSH2 0x1B3 JUMP JUMPDEST PUSH1 0x40 MLOAD PUSH2 0xEE SWAP2 SWAP1 PUSH2 0x277 JUMP JUMPDEST PUSH1 0x40 MLOAD DUP1 SWAP2 SUB SWAP1 RETURN JUMPDEST PUSH2 0x111 PUSH1 0x4 DUP1 CALLDATASIZE SUB DUP2 ADD SWAP1 PUSH2 0x10C SWAP2 SWAP1 PUSH2 0x228 JUMP JUMPDEST PUSH2 0x1C9 JUMP JUMPDEST PUSH1 0x40 MLOAD PUSH2 0x11E SWAP2 SWAP1 PUSH2 0x277 JUMP JUMPDEST PUSH1 0x40 MLOAD DUP1 SWAP2 SUB SWAP1 RETURN JUMPDEST PUSH2 0x141 PUSH1 0x4 DUP1 CALLDATASIZE SUB DUP2 ADD SWAP1 PUSH2 0x13C SWAP2 SWAP1 PUSH2 0x228 JUMP JUMPDEST PUSH2 0x1DF JUMP JUMPDEST PUSH1 0x40 MLOAD PUSH2 0x14E SWAP2 SWAP1 PUSH2 0x277 JUMP JUMPDEST PUSH1 0x40 MLOAD DUP1 SWAP2 SUB SWAP1 RETURN JUMPDEST PUSH2 0x171 PUSH1 0x4 DUP1 CALLDATASIZE SUB DUP2 ADD SWAP1 PUSH2 0x16C SWAP2 SWAP1 PUSH2 0x228 JUMP JUMPDEST PUSH2 0x1F5 JUMP JUMPDEST PUSH1 0x40 MLOAD PUSH2 0x17E SWAP2 SWAP1 PUSH2 0x277 JUMP JUMPDEST PUSH1 0x40 MLOAD DUP1 SWAP2 SUB SWAP1 RETURN JUMPDEST PUSH1 0x0 DUP2 DUP4 PUSH2 0x195 SWAP2 SWAP1 PUSH2 0x48A JUMP JUMPDEST SWAP1 POP SWAP3 SWAP2 POP POP JUMP JUMPDEST PUSH1 0x0 DUP2 DUP4 PUSH2 0x1AB SWAP2 SWAP1 PUSH2 0x522 JUMP JUMPDEST SWAP1 POP SWAP3 SWAP2 POP POP JUMP JUMPDEST PUSH1 0x0 DUP2 DUP4 PUSH2 0x1C1 SWAP2 SWAP1 PUSH2 0x4E4 JUMP JUMPDEST SWAP1 POP SWAP3 SWAP2 POP POP JUMP JUMPDEST PUSH1 0x0 DUP2 DUP4 PUSH2 0x1D7 SWAP2 SWAP1 PUSH2 0x292 JUMP JUMPDEST SWAP1 POP SWAP3 SWAP2 POP POP JUMP JUMPDEST PUSH1 0x0 DUP2 DUP4 PUSH2 0x1ED SWAP2 SWAP1 PUSH2 0x36C JUMP JUMPDEST SWAP1 POP SWAP3 SWAP2 POP POP JUMP JUMPDEST PUSH1 0x0 DUP1 DUP3 EQ PUSH2 0x20D JUMPI DUP2 DUP4 PUSH2 0x20A SWAP2 SWAP1 PUSH2 0x2E8 JUMP JUMPDEST SWAP1 POP JUMPDEST SWAP3 SWAP2 POP POP JUMP JUMPDEST PUSH1 0x0 DUP2 CALLDATALOAD SWAP1 POP PUSH2 0x222 DUP2 PUSH2 0x5C3 JUMP JUMPDEST SWAP3 SWAP2 POP POP JUMP JUMPDEST PUSH1 0x0 DUP1 PUSH1 0x40 DUP4 DUP6 SUB SLT ISZERO PUSH2 0x23F JUMPI PUSH2 0x23E PUSH2 0x5B1 JUMP JUMPDEST JUMPDEST PUSH1 0x0 PUSH2 0x24D DUP6 DUP3 DUP7 ADD PUSH2 0x213 JUMP JUMPDEST SWAP3 POP POP PUSH1 0x20 PUSH2 0x25E DUP6 DUP3 DUP7 ADD PUSH2 0x213 JUMP JUMPDEST SWAP2 POP POP SWAP3 POP SWAP3 SWAP1 POP JUMP JUMPDEST PUSH2 0x271 DUP2 PUSH2 0x518 JUMP JUMPDEST DUP3 MSTORE POP POP JUMP JUMPDEST PUSH1 0x0 PUSH1 0x20 DUP3 ADD SWAP1 POP PUSH2 0x28C PUSH1 0x0 DUP4 ADD DUP5 PUSH2 0x268 JUMP JUMPDEST SWAP3 SWAP2 POP POP JUMP JUMPDEST PUSH1 0x0 PUSH2 0x29D DUP3 PUSH2 0x518 JUMP JUMPDEST SWAP2 POP PUSH2 0x2A8 DUP4 PUSH2 0x518 JUMP JUMPDEST SWAP3 POP DUP3 PUSH32 0xFFFFFFFFFFFFFFFFFFFFFFFFFFFFFFFFFFFFFFFFFFFFFFFFFFFFFFFFFFFFFFFF SUB DUP3 GT ISZERO PUSH2 0x2DD JUMPI PUSH2 0x2DC PUSH2 0x553 JUMP JUMPDEST JUMPDEST DUP3 DUP3 ADD SWAP1 POP SWAP3 SWAP2 POP POP JUMP JUMPDEST PUSH1 0x0 PUSH2 0x2F3 DUP3 PUSH2 0x518 JUMP JUMPDEST SWAP2 POP PUSH2 0x2FE DUP4 PUSH2 0x518 JUMP JUMPDEST SWAP3 POP DUP3 PUSH2 0x30E JUMPI PUSH2 0x30D PUSH2 0x582 JUMP JUMPDEST JUMPDEST DUP3 DUP3 DIV SWAP1 POP SWAP3 SWAP2 POP POP JUMP JUMPDEST PUSH1 0x0 DUP1 DUP3 SWAP2 POP DUP4 SWAP1 POP JUMPDEST PUSH1 0x1 DUP6 GT ISZERO PUSH2 0x363 JUMPI DUP1 DUP7 DIV DUP2 GT ISZERO PUSH2 0x33F JUMPI PUSH2 0x33E PUSH2 0x553 JUMP JUMPDEST JUMPDEST PUSH1 0x1 DUP6 AND ISZERO PUSH2 0x34E JUMPI DUP1 DUP3 MUL SWAP2 POP JUMPDEST DUP1 DUP2 MUL SWAP1 POP PUSH2 0x35C DUP6 PUSH2 0x5B6 JUMP JUMPDEST SWAP5 POP PUSH2 0x323 JUMP JUMPDEST SWAP5 POP SWAP5 SWAP3 POP POP POP JUMP JUMPDEST PUSH1 0x0 PUSH2 0x377 DUP3 PUSH2 0x518 JUMP JUMPDEST SWAP2 POP PUSH2 0x382 DUP4 PUSH2 0x518 JUMP JUMPDEST SWAP3 POP PUSH2 0x3AF PUSH32 0xFFFFFFFFFFFFFFFFFFFFFFFFFFFFFFFFFFFFFFFFFFFFFFFFFFFFFFFFFFFFFFFF DUP5 DUP5 PUSH2 0x3B7 JUMP JUMPDEST SWAP1 POP SWAP3 SWAP2 POP POP JUMP JUMPDEST PUSH1 0x0 DUP3 PUSH2 0x3C7 JUMPI PUSH1 0x1 SWAP1 POP PUSH2 0x483 JUMP JUMPDEST DUP2 PUSH2 0x3D5 JUMPI PUSH1 0x0 SWAP1 POP PUSH2 0x483 JUMP JUMPDEST DUP2 PUSH1 0x1 DUP2 EQ PUSH2 0x3EB JUMPI PUSH1 0x2 DUP2 EQ PUSH2 0x3F5 JUMPI PUSH2 0x424 JUMP JUMPDEST PUSH1 0x1 SWAP2 POP POP PUSH2 0x483 JUMP JUMPDEST PUSH1 0xFF DUP5 GT ISZERO PUSH2 0x407 JUMPI PUSH2 0x406 PUSH2 0x553 JUMP JUMPDEST JUMPDEST DUP4 PUSH1 0x2 EXP SWAP2 POP DUP5 DUP3 GT ISZERO PUSH2 0x41E JUMPI PUSH2 0x41D PUSH2 0x553 JUMP JUMPDEST JUMPDEST POP PUSH2 0x483 JUMP JUMPDEST POP PUSH1 0x20 DUP4 LT PUSH2 0x133 DUP4 LT AND PUSH1 0x4E DUP5 LT PUSH1 0xB DUP5 LT AND OR ISZERO PUSH2 0x459 JUMPI DUP3 DUP3 EXP SWAP1 POP DUP4 DUP2 GT ISZERO PUSH2 0x454 JUMPI PUSH2 0x453 PUSH2 0x553 JUMP JUMPDEST JUMPDEST PUSH2 0x483 JUMP JUMPDEST PUSH2 0x466 DUP5 DUP5 DUP5 PUSH1 0x1 PUSH2 0x319 JUMP JUMPDEST SWAP3 POP SWAP1 POP DUP2 DUP5 DIV DUP2 GT ISZERO PUSH2 0x47D JUMPI PUSH2 0x47C PUSH2 0x553 JUMP JUMPDEST JUMPDEST DUP2 DUP2 MUL SWAP1 POP JUMPDEST SWAP4 SWAP3 POP POP POP JUMP JUMPDEST PUSH1 0x0 PUSH2 0x495 DUP3 PUSH2 0x518 JUMP JUMPDEST SWAP2 POP PUSH2 0x4A0 DUP4 PUSH2 0x518 JUMP JUMPDEST SWAP3 POP DUP2 PUSH32 0xFFFFFFFFFFFFFFFFFFFFFFFFFFFFFFFFFFFFFFFFFFFFFFFFFFFFFFFFFFFFFFFF DIV DUP4 GT DUP3 ISZERO ISZERO AND ISZERO PUSH2 0x4D9 JUMPI PUSH2 0x4D8 PUSH2 0x553 JUMP JUMPDEST JUMPDEST DUP3 DUP3 MUL SWAP1 POP SWAP3 SWAP2 POP POP JUMP JUMPDEST PUSH1 0x0 PUSH2 0x4EF DUP3 PUSH2 0x518 JUMP JUMPDEST SWAP2 POP PUSH2 0x4FA DUP4 PUSH2 0x518 JUMP JUMPDEST SWAP3 POP DUP3 DUP3 LT ISZERO PUSH2 0x50D JUMPI PUSH2 0x50C PUSH2 0x553 JUMP JUMPDEST JUMPDEST DUP3 DUP3 SUB SWAP1 POP SWAP3 SWAP2 POP POP JUMP JUMPDEST PUSH1 0x0 DUP2 SWAP1 POP SWAP2 SWAP1 POP JUMP JUMPDEST PUSH1 0x0 PUSH2 0x52D DUP3 PUSH2 0x518 JUMP JUMPDEST SWAP2 POP PUSH2 0x538 DUP4 PUSH2 0x518 JUMP JUMPDEST SWAP3 POP DUP3 PUSH2 0x548 JUMPI PUSH2 0x547 PUSH2 0x582 JUMP JUMPDEST JUMPDEST DUP3 DUP3 MOD SWAP1 POP SWAP3 SWAP2 POP POP JUMP JUMPDEST PUSH32 0x4E487B7100000000000000000000000000000000000000000000000000000000 PUSH1 0x0 MSTORE PUSH1 0x11 PUSH1 0x4 MSTORE PUSH1 0x24 PUSH1 0x0 REVERT JUMPDEST PUSH32 0x4E487B7100000000000000000000000000000000000000000000000000000000 PUSH1 0x0 MSTORE PUSH1 0x12 PUSH1 0x4 MSTORE PUSH1 0x24 PUSH1 0x0 REVERT JUMPDEST PUSH1 0x0 DUP1 REVERT JUMPDEST PUSH1 0x0 DUP2 PUSH1 0x1 SHR SWAP1 POP SWAP2 SWAP1 POP JUMP JUMPDEST PUSH2 0x5CC DUP2 PUSH2 0x518 JUMP JUMPDEST DUP2 EQ PUSH2 0x5D7 JUMPI PUSH1 0x0 DUP1 REVERT JUMPDEST POP JUMP INVALID LOG2 PUSH5 0x6970667358 0x22 SLT KECCAK256 MSTORE BLOCKHASH 0xB0 0xE6 ORIGIN 0x24 SWAP9 0x27 DIV DUP14 0xD9 DUP10 0xA8 PUSH21 0x8D3F629E9546451D36940DAA6BACA5FB0E9C64736F PUSH13 0x63430008070033000000000000 "
		},
		"gasEstimates": {
			"creation": {
				"codeDepositCost": "310400",
				"executionCost": "48941",
				"totalCost": "359341"
			},
			"external": {
				"add(uint256,uint256)": "infinite",
				"divide(uint256,uint256)": "infinite",
				"multiply(uint256,uint256)": "infinite",
				"square(uint256,uint256)": "infinite",
				"subtract(uint256,uint256)": "infinite",
				"surplus(uint256,uint256)": "infinite"
			}
		},
		"methodIdentifiers": {
			"add(uint256,uint256)": "771602f7",
			"divide(uint256,uint256)": "f88e9fbf",
			"multiply(uint256,uint256)": "165c4a16",
			"square(uint256,uint256)": "ab78e68b",
			"subtract(uint256,uint256)": "3ef5e445",
			"surplus(uint256,uint256)": "1a4bb2c5"
		}
	},
	"abi": [
		{
			"inputs": [
				{
					"internalType": "uint256",
					"name": "a",
					"type": "uint256"
				},
				{
					"internalType": "uint256",
					"name": "b",
					"type": "uint256"
				}
			],
			"name": "add",
			"outputs": [
				{
					"internalType": "uint256",
					"name": "",
					"type": "uint256"
				}
			],
			"stateMutability": "pure",
			"type": "function"
		},
		{
			"inputs": [
				{
					"internalType": "uint256",
					"name": "a",
					"type": "uint256"
				},
				{
					"internalType": "uint256",
					"name": "b",
					"type": "uint256"
				}
			],
			"name": "divide",
			"outputs": [
				{
					"internalType": "uint256",
					"name": "result",
					"type": "uint256"
				}
			],
			"stateMutability": "pure",
			"type": "function"
		},
		{
			"inputs": [
				{
					"internalType": "uint256",
					"name": "a",
					"type": "uint256"
				},
				{
					"internalType": "uint256",
					"name": "b",
					"type": "uint256"
				}
			],
			"name": "multiply",
			"outputs": [
				{
					"internalType": "uint256",
					"name": "",
					"type": "uint256"
				}
			],
			"stateMutability": "pure",
			"type": "function"
		},
		{
			"inputs": [
				{
					"internalType": "uint256",
					"name": "a",
					"type": "uint256"
				},
				{
					"internalType": "uint256",
					"name": "b",
					"type": "uint256"
				}
			],
			"name": "square",
			"outputs": [
				{
					"internalType": "uint256",
					"name": "",
					"type": "uint256"
				}
			],
			"stateMutability": "pure",
			"type": "function"
		},
		{
			"inputs": [
				{
					"internalType": "uint256",
					"name": "a",
					"type": "uint256"
				},
				{
					"internalType": "uint256",
					"name": "b",
					"type": "uint256"
				}
			],
			"name": "subtract",
			"outputs": [
				{
					"internalType": "uint256",
					"name": "",
					"type": "uint256"
				}
			],
			"stateMutability": "pure",
			"type": "function"
		},
		{
			"inputs": [
				{
					"internalType": "uint256",
					"name": "a",
					"type": "uint256"
				},
				{
					"internalType": "uint256",
					"name": "b",
					"type": "uint256"
				}
			],
			"name": "surplus",
			"outputs": [
				{
					"internalType": "uint256",
					"name": "",
					"type": "uint256"
				}
			],
			"stateMutability": "pure",
			"type": "function"
		}
	]
}